{
  "contractName": "MathContract",
  "abi": [
    {
      "inputs": [
        {
          "internalType": "uint8",
          "name": "a",
          "type": "uint8"
        },
        {
          "internalType": "uint8",
          "name": "b",
          "type": "uint8"
        }
      ],
      "name": "add",
      "outputs": [
        {
          "internalType": "uint8",
          "name": "",
          "type": "uint8"
        }
      ],
      "stateMutability": "pure",
      "type": "function"
    },
    {
      "inputs": [
        {
          "internalType": "uint8",
          "name": "a",
          "type": "uint8"
        },
        {
          "internalType": "uint8",
          "name": "b",
          "type": "uint8"
        }
      ],
      "name": "sub",
      "outputs": [
        {
          "internalType": "uint8",
          "name": "",
          "type": "uint8"
        }
      ],
      "stateMutability": "pure",
      "type": "function"
    }
  ],
  "bytecode": "0x608060405234801561001057600080fd5b5061023f806100206000396000f3fe608060405234801561001057600080fd5b50600436106100365760003560e01c80631e5f34af1461003b578063bb4e3f4d1461006b575b600080fd5b61005560048036038101906100509190610105565b61009b565b6040516100629190610154565b60405180910390f35b61008560048036038101906100809190610105565b6100b1565b6040516100929190610154565b60405180910390f35b600081836100a9919061019e565b905092915050565b600081836100bf91906101d2565b905092915050565b600080fd5b600060ff82169050919050565b6100e2816100cc565b81146100ed57600080fd5b50565b6000813590506100ff816100d9565b92915050565b6000806040838503121561011c5761011b6100c7565b5b600061012a858286016100f0565b925050602061013b858286016100f0565b9150509250929050565b61014e816100cc565b82525050565b60006020820190506101696000830184610145565b92915050565b7f4e487b7100000000000000000000000000000000000000000000000000000000600052601160045260246000fd5b60006101a9826100cc565b91506101b4836100cc565b9250828210156101c7576101c661016f565b5b828203905092915050565b60006101dd826100cc565b91506101e8836100cc565b92508260ff038211156101fe576101fd61016f565b5b82820190509291505056fea26469706673582212200afe9e806d6e768498300db8145c5f93aa358bcefe85e676878222b6223ccf0164736f6c634300080f0033",
  "immutableReferences": {},
  "source": "pragma solidity >=0.4.22 <0.9.0;\n\ncontract MathContract {\n    /**add */\n    function add(uint8 a, uint8 b) public pure returns (uint8) {\n        return a + b;\n    }\n\n    function sub(uint8 a, uint8 b) public pure returns (uint8) {\n        return a - b;\n    }\n}\n",
  "sourcePath": "/Users/apple/IdeaProjects/web3.0/truffle-init/contracts/MathContract.sol",
  "compiler": {
    "name": "solc",
    "version": "0.8.15+commit.e14f2714.Emscripten.clang"
  },
  "schemaVersion": "3.4.8",
  "updatedAt": "2022-07-26T09:55:07.702Z",
  "devdoc": {
    "kind": "dev",
    "methods": {},
    "version": 1
  },
  "userdoc": {
    "kind": "user",
    "methods": {
      "add(uint8,uint8)": {
        "notice": "add "
      }
    },
    "version": 1
  }
}